{
  "_format": "hh-sol-artifact-1",
  "contractName": "NFTMarketplace",
  "sourceName": "contracts/NFTMarketplace.sol",
  "abi": [
    {
      "inputs": [
        {
          "internalType": "string",
          "name": "_company",
          "type": "string"
        },
        {
          "internalType": "string",
          "name": "_symbol",
          "type": "string"
        },
        {
          "internalType": "uint256",
          "name": "_royalityFee",
          "type": "uint256"
        }
      ],
      "stateMutability": "nonpayable",
      "type": "constructor"
    },
    {
      "anonymous": false,
      "inputs": [
        {
          "indexed": true,
          "internalType": "address",
          "name": "owner",
          "type": "address"
        },
        {
          "indexed": true,
          "internalType": "address",
          "name": "approved",
          "type": "address"
        },
        {
          "indexed": true,
          "internalType": "uint256",
          "name": "tokenId",
          "type": "uint256"
        }
      ],
      "name": "Approval",
      "type": "event"
    },
    {
      "anonymous": false,
      "inputs": [
        {
          "indexed": true,
          "internalType": "address",
          "name": "owner",
          "type": "address"
        },
        {
          "indexed": true,
          "internalType": "address",
          "name": "operator",
          "type": "address"
        },
        {
          "indexed": false,
          "internalType": "bool",
          "name": "approved",
          "type": "bool"
        }
      ],
      "name": "ApprovalForAll",
      "type": "event"
    },
    {
      "anonymous": false,
      "inputs": [
        {
          "indexed": false,
          "internalType": "uint256",
          "name": "_fromTokenId",
          "type": "uint256"
        },
        {
          "indexed": false,
          "internalType": "uint256",
          "name": "_toTokenId",
          "type": "uint256"
        }
      ],
      "name": "BatchMetadataUpdate",
      "type": "event"
    },
    {
      "anonymous": false,
      "inputs": [
        {
          "indexed": false,
          "internalType": "uint256",
          "name": "_tokenId",
          "type": "uint256"
        }
      ],
      "name": "MetadataUpdate",
      "type": "event"
    },
    {
      "anonymous": false,
      "inputs": [
        {
          "indexed": true,
          "internalType": "address",
          "name": "previousOwner",
          "type": "address"
        },
        {
          "indexed": true,
          "internalType": "address",
          "name": "newOwner",
          "type": "address"
        }
      ],
      "name": "OwnershipTransferred",
      "type": "event"
    },
    {
      "anonymous": false,
      "inputs": [
        {
          "indexed": false,
          "internalType": "uint256",
          "name": "tokenId",
          "type": "uint256"
        },
        {
          "indexed": true,
          "internalType": "address",
          "name": "owner",
          "type": "address"
        },
        {
          "indexed": false,
          "internalType": "uint256",
          "name": "cost",
          "type": "uint256"
        },
        {
          "indexed": false,
          "internalType": "string",
          "name": "fileURI",
          "type": "string"
        },
        {
          "indexed": false,
          "internalType": "uint256",
          "name": "timestamp",
          "type": "uint256"
        }
      ],
      "name": "Sale",
      "type": "event"
    },
    {
      "anonymous": false,
      "inputs": [
        {
          "indexed": true,
          "internalType": "address",
          "name": "from",
          "type": "address"
        },
        {
          "indexed": true,
          "internalType": "address",
          "name": "to",
          "type": "address"
        },
        {
          "indexed": true,
          "internalType": "uint256",
          "name": "tokenId",
          "type": "uint256"
        }
      ],
      "name": "Transfer",
      "type": "event"
    },
    {
      "inputs": [
        {
          "internalType": "address",
          "name": "to",
          "type": "address"
        },
        {
          "internalType": "uint256",
          "name": "tokenId",
          "type": "uint256"
        }
      ],
      "name": "approve",
      "outputs": [],
      "stateMutability": "nonpayable",
      "type": "function"
    },
    {
      "inputs": [
        {
          "internalType": "address",
          "name": "owner",
          "type": "address"
        }
      ],
      "name": "balanceOf",
      "outputs": [
        {
          "internalType": "uint256",
          "name": "",
          "type": "uint256"
        }
      ],
      "stateMutability": "view",
      "type": "function"
    },
    {
      "inputs": [
        {
          "internalType": "uint256",
          "name": "_id",
          "type": "uint256"
        }
      ],
      "name": "buyNFT",
      "outputs": [],
      "stateMutability": "payable",
      "type": "function"
    },
    {
      "inputs": [
        {
          "internalType": "uint256",
          "name": "_id",
          "type": "uint256"
        },
        {
          "internalType": "uint256",
          "name": "newPrice",
          "type": "uint256"
        }
      ],
      "name": "changePrice",
      "outputs": [
        {
          "internalType": "bool",
          "name": "",
          "type": "bool"
        }
      ],
      "stateMutability": "nonpayable",
      "type": "function"
    },
    {
      "inputs": [],
      "name": "cost",
      "outputs": [
        {
          "internalType": "uint256",
          "name": "",
          "type": "uint256"
        }
      ],
      "stateMutability": "view",
      "type": "function"
    },
    {
      "inputs": [],
      "name": "currentTokenID",
      "outputs": [
        {
          "internalType": "uint256",
          "name": "",
          "type": "uint256"
        }
      ],
      "stateMutability": "view",
      "type": "function"
    },
    {
      "inputs": [],
      "name": "getAllNFTs",
      "outputs": [
        {
          "components": [
            {
              "internalType": "uint256",
              "name": "tokenId",
              "type": "uint256"
            },
            {
              "internalType": "address",
              "name": "nftOwner",
              "type": "address"
            },
            {
              "internalType": "string",
              "name": "title",
              "type": "string"
            },
            {
              "internalType": "string",
              "name": "category",
              "type": "string"
            },
            {
              "internalType": "string",
              "name": "description",
              "type": "string"
            },
            {
              "internalType": "uint256",
              "name": "price",
              "type": "uint256"
            },
            {
              "internalType": "string",
              "name": "fileURI",
              "type": "string"
            },
            {
              "internalType": "uint256",
              "name": "timestamp",
              "type": "uint256"
            },
            {
              "internalType": "bool",
              "name": "isOnSale",
              "type": "bool"
            }
          ],
          "internalType": "struct NFTMarketplace.NFTItem[]",
          "name": "",
          "type": "tuple[]"
        }
      ],
      "stateMutability": "view",
      "type": "function"
    },
    {
      "inputs": [],
      "name": "getAllTransactions",
      "outputs": [
        {
          "components": [
            {
              "internalType": "uint256",
              "name": "transactionID",
              "type": "uint256"
            },
            {
              "internalType": "address",
              "name": "from",
              "type": "address"
            },
            {
              "internalType": "address",
              "name": "to",
              "type": "address"
            },
            {
              "internalType": "string",
              "name": "nftTitle",
              "type": "string"
            },
            {
              "internalType": "uint256",
              "name": "transactionPrice",
              "type": "uint256"
            },
            {
              "internalType": "uint256",
              "name": "timestamp",
              "type": "uint256"
            }
          ],
          "internalType": "struct NFTMarketplace.Transaction[]",
          "name": "",
          "type": "tuple[]"
        }
      ],
      "stateMutability": "view",
      "type": "function"
    },
    {
      "inputs": [
        {
          "internalType": "uint256",
          "name": "tokenId",
          "type": "uint256"
        }
      ],
      "name": "getApproved",
      "outputs": [
        {
          "internalType": "address",
          "name": "",
          "type": "address"
        }
      ],
      "stateMutability": "view",
      "type": "function"
    },
    {
      "inputs": [
        {
          "internalType": "uint256",
          "name": "",
          "type": "uint256"
        }
      ],
      "name": "holderOf",
      "outputs": [
        {
          "internalType": "address",
          "name": "",
          "type": "address"
        }
      ],
      "stateMutability": "view",
      "type": "function"
    },
    {
      "inputs": [
        {
          "internalType": "address",
          "name": "owner",
          "type": "address"
        },
        {
          "internalType": "address",
          "name": "operator",
          "type": "address"
        }
      ],
      "name": "isApprovedForAll",
      "outputs": [
        {
          "internalType": "bool",
          "name": "",
          "type": "bool"
        }
      ],
      "stateMutability": "view",
      "type": "function"
    },
    {
      "inputs": [
        {
          "internalType": "string",
          "name": "_title",
          "type": "string"
        },
        {
          "internalType": "string",
          "name": "_category",
          "type": "string"
        },
        {
          "internalType": "string",
          "name": "_description",
          "type": "string"
        },
        {
          "internalType": "string",
          "name": "_fileURI",
          "type": "string"
        },
        {
          "internalType": "uint256",
          "name": "_price",
          "type": "uint256"
        }
      ],
      "name": "mintNFT",
      "outputs": [],
      "stateMutability": "payable",
      "type": "function"
    },
    {
      "inputs": [],
      "name": "name",
      "outputs": [
        {
          "internalType": "string",
          "name": "",
          "type": "string"
        }
      ],
      "stateMutability": "view",
      "type": "function"
    },
    {
      "inputs": [],
      "name": "owner",
      "outputs": [
        {
          "internalType": "address",
          "name": "",
          "type": "address"
        }
      ],
      "stateMutability": "view",
      "type": "function"
    },
    {
      "inputs": [
        {
          "internalType": "uint256",
          "name": "tokenId",
          "type": "uint256"
        }
      ],
      "name": "ownerOf",
      "outputs": [
        {
          "internalType": "address",
          "name": "",
          "type": "address"
        }
      ],
      "stateMutability": "view",
      "type": "function"
    },
    {
      "inputs": [],
      "name": "renounceOwnership",
      "outputs": [],
      "stateMutability": "nonpayable",
      "type": "function"
    },
    {
      "inputs": [],
      "name": "royalityFee",
      "outputs": [
        {
          "internalType": "uint256",
          "name": "",
          "type": "uint256"
        }
      ],
      "stateMutability": "view",
      "type": "function"
    },
    {
      "inputs": [
        {
          "internalType": "address",
          "name": "from",
          "type": "address"
        },
        {
          "internalType": "address",
          "name": "to",
          "type": "address"
        },
        {
          "internalType": "uint256",
          "name": "tokenId",
          "type": "uint256"
        }
      ],
      "name": "safeTransferFrom",
      "outputs": [],
      "stateMutability": "nonpayable",
      "type": "function"
    },
    {
      "inputs": [
        {
          "internalType": "address",
          "name": "from",
          "type": "address"
        },
        {
          "internalType": "address",
          "name": "to",
          "type": "address"
        },
        {
          "internalType": "uint256",
          "name": "tokenId",
          "type": "uint256"
        },
        {
          "internalType": "bytes",
          "name": "data",
          "type": "bytes"
        }
      ],
      "name": "safeTransferFrom",
      "outputs": [],
      "stateMutability": "nonpayable",
      "type": "function"
    },
    {
      "inputs": [
        {
          "internalType": "address",
          "name": "operator",
          "type": "address"
        },
        {
          "internalType": "bool",
          "name": "approved",
          "type": "bool"
        }
      ],
      "name": "setApprovalForAll",
      "outputs": [],
      "stateMutability": "nonpayable",
      "type": "function"
    },
    {
      "inputs": [],
      "name": "siteOwner",
      "outputs": [
        {
          "internalType": "address",
          "name": "",
          "type": "address"
        }
      ],
      "stateMutability": "view",
      "type": "function"
    },
    {
      "inputs": [
        {
          "internalType": "bytes4",
          "name": "interfaceId",
          "type": "bytes4"
        }
      ],
      "name": "supportsInterface",
      "outputs": [
        {
          "internalType": "bool",
          "name": "",
          "type": "bool"
        }
      ],
      "stateMutability": "view",
      "type": "function"
    },
    {
      "inputs": [],
      "name": "symbol",
      "outputs": [
        {
          "internalType": "string",
          "name": "",
          "type": "string"
        }
      ],
      "stateMutability": "view",
      "type": "function"
    },
    {
      "inputs": [
        {
          "internalType": "uint256",
          "name": "tokenId",
          "type": "uint256"
        }
      ],
      "name": "tokenURI",
      "outputs": [
        {
          "internalType": "string",
          "name": "",
          "type": "string"
        }
      ],
      "stateMutability": "view",
      "type": "function"
    },
    {
      "inputs": [],
      "name": "totalTransaction",
      "outputs": [
        {
          "internalType": "uint256",
          "name": "",
          "type": "uint256"
        }
      ],
      "stateMutability": "view",
      "type": "function"
    },
    {
      "inputs": [
        {
          "internalType": "address",
          "name": "from",
          "type": "address"
        },
        {
          "internalType": "address",
          "name": "to",
          "type": "address"
        },
        {
          "internalType": "uint256",
          "name": "tokenId",
          "type": "uint256"
        }
      ],
      "name": "transferFrom",
      "outputs": [],
      "stateMutability": "nonpayable",
      "type": "function"
    },
    {
      "inputs": [
        {
          "internalType": "address",
          "name": "newOwner",
          "type": "address"
        }
      ],
      "name": "transferOwnership",
      "outputs": [],
      "stateMutability": "nonpayable",
      "type": "function"
    }
  ],
  "bytecode": "0x60806040526000600e55662386f26fc10000600f553480156200002157600080fd5b506040516200537a3803806200537a8339818101604052810190620000479190620002f5565b8282816000908051906020019062000061929190620001bc565b5080600190805190602001906200007a929190620001bc565b5050506200009d62000091620000ee60201b60201c565b620000f660201b60201c565b80600c8190555033600b60006101000a81548173ffffffffffffffffffffffffffffffffffffffff021916908373ffffffffffffffffffffffffffffffffffffffff16021790555050505062000511565b600033905090565b6000600760009054906101000a900473ffffffffffffffffffffffffffffffffffffffff16905081600760006101000a81548173ffffffffffffffffffffffffffffffffffffffff021916908373ffffffffffffffffffffffffffffffffffffffff1602179055508173ffffffffffffffffffffffffffffffffffffffff168173ffffffffffffffffffffffffffffffffffffffff167f8be0079c531659141344cd1fd0a4f28419497f9722a3daafe3b4186f6b6457e060405160405180910390a35050565b828054620001ca906200041c565b90600052602060002090601f016020900481019282620001ee57600085556200023a565b82601f106200020957805160ff19168380011785556200023a565b828001600101855582156200023a579182015b82811115620002395782518255916020019190600101906200021c565b5b5090506200024991906200024d565b5090565b5b80821115620002685760008160009055506001016200024e565b5090565b6000620002836200027d84620003a6565b6200037d565b9050828152602081018484840111156200029c57600080fd5b620002a9848285620003e6565b509392505050565b600082601f830112620002c357600080fd5b8151620002d58482602086016200026c565b91505092915050565b600081519050620002ef81620004f7565b92915050565b6000806000606084860312156200030b57600080fd5b600084015167ffffffffffffffff8111156200032657600080fd5b6200033486828701620002b1565b935050602084015167ffffffffffffffff8111156200035257600080fd5b6200036086828701620002b1565b92505060406200037386828701620002de565b9150509250925092565b6000620003896200039c565b905062000397828262000452565b919050565b6000604051905090565b600067ffffffffffffffff821115620003c457620003c3620004b7565b5b620003cf82620004e6565b9050602081019050919050565b6000819050919050565b60005b8381101562000406578082015181840152602081019050620003e9565b8381111562000416576000848401525b50505050565b600060028204905060018216806200043557607f821691505b602082108114156200044c576200044b62000488565b5b50919050565b6200045d82620004e6565b810181811067ffffffffffffffff821117156200047f576200047e620004b7565b5b80604052505050565b7f4e487b7100000000000000000000000000000000000000000000000000000000600052602260045260246000fd5b7f4e487b7100000000000000000000000000000000000000000000000000000000600052604160045260246000fd5b6000601f19601f8301169050919050565b6200050281620003dc565b81146200050e57600080fd5b50565b614e5980620005216000396000f3fe60806040526004361061019c5760003560e01c806370a08231116100ec578063b88d4fde1161008a578063dbacc23711610064578063dbacc237146105ae578063e0391b09146105eb578063e985e9c514610616578063f2fde38b146106535761019c565b8063b88d4fde1461051d578063bb62115e14610546578063c87b56dd146105715761019c565b806395d89b41116100c657806395d89b4114610470578063a060e7e61461049b578063a22cb465146104b7578063b3de019c146104e05761019c565b806370a08231146103f1578063715018a61461042e5780638da5cb5b146104455761019c565b806313faede611610159578063326bb4ad11610133578063326bb4ad1461034457806342842e0e1461036f57806351ed8288146103985780636352211e146103b45761019c565b806313faede6146102c557806323b872dd146102f057806327506f53146103195761019c565b80630147d79c146101a157806301ffc9a7146101cc57806306fdde0314610209578063081812fc14610234578063095ea7b3146102715780630d09d41b1461029a575b600080fd5b3480156101ad57600080fd5b506101b661067c565b6040516101c39190614368565b60405180910390f35b3480156101d857600080fd5b506101f360048036038101906101ee9190613692565b610682565b604051610200919061406b565b60405180910390f35b34801561021557600080fd5b5061021e6106e3565b60405161022b9190614086565b60405180910390f35b34801561024057600080fd5b5061025b600480360381019061025691906137bb565b610775565b6040516102689190613fc0565b60405180910390f35b34801561027d57600080fd5b5061029860048036038101906102939190613656565b6107bb565b005b3480156102a657600080fd5b506102af6108d3565b6040516102bc9190613fc0565b60405180910390f35b3480156102d157600080fd5b506102da6108f9565b6040516102e79190614368565b60405180910390f35b3480156102fc57600080fd5b5061031760048036038101906103129190613550565b6108ff565b005b34801561032557600080fd5b5061032e61095f565b60405161033b9190614049565b60405180910390f35b34801561035057600080fd5b50610359610b1a565b6040516103669190614368565b60405180910390f35b34801561037b57600080fd5b5061039660048036038101906103919190613550565b610b20565b005b6103b260048036038101906103ad91906137bb565b610b40565b005b3480156103c057600080fd5b506103db60048036038101906103d691906137bb565b61124a565b6040516103e89190613fc0565b60405180910390f35b3480156103fd57600080fd5b50610418600480360381019061041391906134eb565b6112d1565b6040516104259190614368565b60405180910390f35b34801561043a57600080fd5b50610443611389565b005b34801561045157600080fd5b5061045a61139d565b6040516104679190613fc0565b60405180910390f35b34801561047c57600080fd5b506104856113c7565b6040516104929190614086565b60405180910390f35b6104b560048036038101906104b091906136e4565b611459565b005b3480156104c357600080fd5b506104de60048036038101906104d9919061361a565b6117f8565b005b3480156104ec57600080fd5b50610507600480360381019061050291906137e4565b61180e565b604051610514919061406b565b60405180910390f35b34801561052957600080fd5b50610544600480360381019061053f919061359f565b6119e9565b005b34801561055257600080fd5b5061055b611a4b565b6040516105689190614368565b60405180910390f35b34801561057d57600080fd5b50610598600480360381019061059391906137bb565b611a51565b6040516105a59190614086565b60405180910390f35b3480156105ba57600080fd5b506105d560048036038101906105d091906137bb565b611b64565b6040516105e29190613fc0565b60405180910390f35b3480156105f757600080fd5b50610600611b97565b60405161060d9190614027565b60405180910390f35b34801561062257600080fd5b5061063d60048036038101906106389190613514565b611ece565b60405161064a919061406b565b60405180910390f35b34801561065f57600080fd5b5061067a600480360381019061067591906134eb565b611f62565b005b600e5481565b6000634906490660e01b7bffffffffffffffffffffffffffffffffffffffffffffffffffffffff1916827bffffffffffffffffffffffffffffffffffffffffffffffffffffffff191614806106dc57506106db82611fe6565b5b9050919050565b6060600080546106f2906146fd565b80601f016020809104026020016040519081016040528092919081815260200182805461071e906146fd565b801561076b5780601f106107405761010080835404028352916020019161076b565b820191906000526020600020905b81548152906001019060200180831161074e57829003601f168201915b5050505050905090565b6000610780826120c8565b6004600083815260200190815260200160002060009054906101000a900473ffffffffffffffffffffffffffffffffffffffff169050919050565b60006107c68261124a565b90508073ffffffffffffffffffffffffffffffffffffffff168373ffffffffffffffffffffffffffffffffffffffff161415610837576040517f08c379a000000000000000000000000000000000000000000000000000000000815260040161082e906142a8565b60405180910390fd5b8073ffffffffffffffffffffffffffffffffffffffff16610856612113565b73ffffffffffffffffffffffffffffffffffffffff16148061088557506108848161087f612113565b611ece565b5b6108c4576040517f08c379a00000000000000000000000000000000000000000000000000000000081526004016108bb906142c8565b60405180910390fd5b6108ce838361211b565b505050565b600b60009054906101000a900473ffffffffffffffffffffffffffffffffffffffff1681565b600f5481565b61091061090a612113565b826121d4565b61094f576040517f08c379a0000000000000000000000000000000000000000000000000000000008152600401610946906140a8565b60405180910390fd5b61095a838383612269565b505050565b60606010805480602002602001604051908101604052809291908181526020016000905b82821015610b1157838290600052602060002090600602016040518060c0016040529081600082015481526020016001820160009054906101000a900473ffffffffffffffffffffffffffffffffffffffff1673ffffffffffffffffffffffffffffffffffffffff1673ffffffffffffffffffffffffffffffffffffffff1681526020016002820160009054906101000a900473ffffffffffffffffffffffffffffffffffffffff1673ffffffffffffffffffffffffffffffffffffffff1673ffffffffffffffffffffffffffffffffffffffff168152602001600382018054610a6c906146fd565b80601f0160208091040260200160405190810160405280929190818152602001828054610a98906146fd565b8015610ae55780601f10610aba57610100808354040283529160200191610ae5565b820191906000526020600020905b815481529060010190602001808311610ac857829003601f168201915b505050505081526020016004820154815260200160058201548152505081526020019060010190610983565b50505050905090565b600c5481565b610b3b838383604051806020016040528060008152506119e9565b505050565b60118181548110610b7a577f4e487b7100000000000000000000000000000000000000000000000000000000600052603260045260246000fd5b906000526020600020906009020160050154341015610bce576040517f08c379a0000000000000000000000000000000000000000000000000000000008152600401610bc590614288565b60405180910390fd5b60118181548110610c08577f4e487b7100000000000000000000000000000000000000000000000000000000600052603260045260246000fd5b906000526020600020906009020160010160009054906101000a900473ffffffffffffffffffffffffffffffffffffffff1673ffffffffffffffffffffffffffffffffffffffff163373ffffffffffffffffffffffffffffffffffffffff161415610ca8576040517f08c379a0000000000000000000000000000000000000000000000000000000008152600401610c9f90614328565b60405180910390fd5b6001151560118281548110610ce6577f4e487b7100000000000000000000000000000000000000000000000000000000600052603260045260246000fd5b906000526020600020906009020160080160009054906101000a900460ff16151514610d47576040517f08c379a0000000000000000000000000000000000000000000000000000000008152600401610d3e90614348565b60405180910390fd5b60006064600c5434610d5991906145b9565b610d639190614588565b9050610d91600b60009054906101000a900473ffffffffffffffffffffffffffffffffffffffff1682612563565b610e1160118381548110610dce577f4e487b7100000000000000000000000000000000000000000000000000000000600052603260045260246000fd5b906000526020600020906009020160010160009054906101000a900473ffffffffffffffffffffffffffffffffffffffff168234610e0c9190614613565b612563565b600e6000815480929190610e2490614760565b919050555060106040518060c00160405280600e5481526020013373ffffffffffffffffffffffffffffffffffffffff16815260200160118581548110610e94577f4e487b7100000000000000000000000000000000000000000000000000000000600052603260045260246000fd5b906000526020600020906009020160010160009054906101000a900473ffffffffffffffffffffffffffffffffffffffff1673ffffffffffffffffffffffffffffffffffffffff16815260200160118581548110610f1b577f4e487b7100000000000000000000000000000000000000000000000000000000600052603260045260246000fd5b90600052602060002090600902016002018054610f37906146fd565b80601f0160208091040260200160405190810160405280929190818152602001828054610f63906146fd565b8015610fb05780601f10610f8557610100808354040283529160200191610fb0565b820191906000526020600020905b815481529060010190602001808311610f9357829003601f168201915b505050505081526020013481526020014281525090806001815401808255809150506001900390600052602060002090600602016000909190919091506000820151816000015560208201518160010160006101000a81548173ffffffffffffffffffffffffffffffffffffffff021916908373ffffffffffffffffffffffffffffffffffffffff16021790555060408201518160020160006101000a81548173ffffffffffffffffffffffffffffffffffffffff021916908373ffffffffffffffffffffffffffffffffffffffff16021790555060608201518160030190805190602001906110a192919061330f565b506080820151816004015560a0820151816005015550503373ffffffffffffffffffffffffffffffffffffffff167fb9508407a6eccb191d8da3286f4173697cf95604e9ea192fe5ab7c862b5221f6600e54346011868154811061112e577f4e487b7100000000000000000000000000000000000000000000000000000000600052603260045260246000fd5b90600052602060002090600902016006014260405161115094939291906143cf565b60405180910390a23360118381548110611193577f4e487b7100000000000000000000000000000000000000000000000000000000600052603260045260246000fd5b906000526020600020906009020160010160006101000a81548173ffffffffffffffffffffffffffffffffffffffff021916908373ffffffffffffffffffffffffffffffffffffffff16021790555060006011838154811061121e577f4e487b7100000000000000000000000000000000000000000000000000000000600052603260045260246000fd5b906000526020600020906009020160080160006101000a81548160ff0219169083151502179055505050565b60008061125683612614565b9050600073ffffffffffffffffffffffffffffffffffffffff168173ffffffffffffffffffffffffffffffffffffffff1614156112c8576040517f08c379a00000000000000000000000000000000000000000000000000000000081526004016112bf90614268565b60405180910390fd5b80915050919050565b60008073ffffffffffffffffffffffffffffffffffffffff168273ffffffffffffffffffffffffffffffffffffffff161415611342576040517f08c379a0000000000000000000000000000000000000000000000000000000008152600401611339906141a8565b60405180910390fd5b600360008373ffffffffffffffffffffffffffffffffffffffff1673ffffffffffffffffffffffffffffffffffffffff168152602001908152602001600020549050919050565b611391612651565b61139b60006126cf565b565b6000600760009054906101000a900473ffffffffffffffffffffffffffffffffffffffff16905090565b6060600180546113d6906146fd565b80601f0160208091040260200160405190810160405280929190818152602001828054611402906146fd565b801561144f5780601f106114245761010080835404028352916020019161144f565b820191906000526020600020905b81548152906001019060200180831161143257829003601f168201915b5050505050905090565b600f5434101561149e576040517f08c379a0000000000000000000000000000000000000000000000000000000008152600401611495906142e8565b60405180910390fd5b600b60009054906101000a900473ffffffffffffffffffffffffffffffffffffffff1673ffffffffffffffffffffffffffffffffffffffff163373ffffffffffffffffffffffffffffffffffffffff16141561152f576040517f08c379a000000000000000000000000000000000000000000000000000000000815260040161152690614208565b60405180910390fd5b61155b600b60009054906101000a900473ffffffffffffffffffffffffffffffffffffffff1634612563565b6115656008612795565b61156f60086127ab565b600d819055506011604051806101200160405280600d5481526020013373ffffffffffffffffffffffffffffffffffffffff1681526020018781526020018681526020018581526020018381526020018481526020014281526020016001151581525090806001815401808255809150506001900390600052602060002090600902016000909190919091506000820151816000015560208201518160010160006101000a81548173ffffffffffffffffffffffffffffffffffffffff021916908373ffffffffffffffffffffffffffffffffffffffff160217905550604082015181600201908051906020019061166892919061330f565b50606082015181600301908051906020019061168592919061330f565b5060808201518160040190805190602001906116a292919061330f565b5060a0820151816005015560c08201518160060190805190602001906116c992919061330f565b5060e082015181600701556101008201518160080160006101000a81548160ff02191690831515021790555050503373ffffffffffffffffffffffffffffffffffffffff167fb9508407a6eccb191d8da3286f4173697cf95604e9ea192fe5ab7c862b5221f6600d543485426040516117459493929190614383565b60405180910390a261175933600d546127b9565b611765600d54836127d7565b60016009836040516117779190613f70565b908152602001604051809103902060006101000a81548160ff021916908360ff16021790555033600a6000600d54815260200190815260200160002060006101000a81548173ffffffffffffffffffffffffffffffffffffffff021916908373ffffffffffffffffffffffffffffffffffffffff1602179055505050505050565b61180a611803612113565b8383612882565b5050565b6000808211611852576040517f08c379a000000000000000000000000000000000000000000000000000000000815260040161184990614248565b60405180910390fd5b6011838154811061188c577f4e487b7100000000000000000000000000000000000000000000000000000000600052603260045260246000fd5b906000526020600020906009020160010160009054906101000a900473ffffffffffffffffffffffffffffffffffffffff1673ffffffffffffffffffffffffffffffffffffffff163373ffffffffffffffffffffffffffffffffffffffff161461192b576040517f08c379a000000000000000000000000000000000000000000000000000000000815260040161192290614308565b60405180910390fd5b8160118481548110611966577f4e487b7100000000000000000000000000000000000000000000000000000000600052603260045260246000fd5b9060005260206000209060090201600501819055506001601184815481106119b7577f4e487b7100000000000000000000000000000000000000000000000000000000600052603260045260246000fd5b906000526020600020906009020160080160006101000a81548160ff0219169083151502179055506001905092915050565b6119fa6119f4612113565b836121d4565b611a39576040517f08c379a0000000000000000000000000000000000000000000000000000000008152600401611a30906140a8565b60405180910390fd5b611a45848484846129ef565b50505050565b600d5481565b6060611a5c826120c8565b6000600660008481526020019081526020016000208054611a7c906146fd565b80601f0160208091040260200160405190810160405280929190818152602001828054611aa8906146fd565b8015611af55780601f10611aca57610100808354040283529160200191611af5565b820191906000526020600020905b815481529060010190602001808311611ad857829003601f168201915b505050505090506000611b06612a4b565b9050600081511415611b1c578192505050611b5f565b600082511115611b51578082604051602001611b39929190613f87565b60405160208183030381529060405292505050611b5f565b611b5a84612a62565b925050505b919050565b600a6020528060005260406000206000915054906101000a900473ffffffffffffffffffffffffffffffffffffffff1681565b60606011805480602002602001604051908101604052809291908181526020016000905b82821015611ec5578382906000526020600020906009020160405180610120016040529081600082015481526020016001820160009054906101000a900473ffffffffffffffffffffffffffffffffffffffff1673ffffffffffffffffffffffffffffffffffffffff1673ffffffffffffffffffffffffffffffffffffffff168152602001600282018054611c4f906146fd565b80601f0160208091040260200160405190810160405280929190818152602001828054611c7b906146fd565b8015611cc85780601f10611c9d57610100808354040283529160200191611cc8565b820191906000526020600020905b815481529060010190602001808311611cab57829003601f168201915b50505050508152602001600382018054611ce1906146fd565b80601f0160208091040260200160405190810160405280929190818152602001828054611d0d906146fd565b8015611d5a5780601f10611d2f57610100808354040283529160200191611d5a565b820191906000526020600020905b815481529060010190602001808311611d3d57829003601f168201915b50505050508152602001600482018054611d73906146fd565b80601f0160208091040260200160405190810160405280929190818152602001828054611d9f906146fd565b8015611dec5780601f10611dc157610100808354040283529160200191611dec565b820191906000526020600020905b815481529060010190602001808311611dcf57829003601f168201915b5050505050815260200160058201548152602001600682018054611e0f906146fd565b80601f0160208091040260200160405190810160405280929190818152602001828054611e3b906146fd565b8015611e885780601f10611e5d57610100808354040283529160200191611e88565b820191906000526020600020905b815481529060010190602001808311611e6b57829003601f168201915b50505050508152602001600782015481526020016008820160009054906101000a900460ff16151515158152505081526020019060010190611bbb565b50505050905090565b6000600560008473ffffffffffffffffffffffffffffffffffffffff1673ffffffffffffffffffffffffffffffffffffffff16815260200190815260200160002060008373ffffffffffffffffffffffffffffffffffffffff1673ffffffffffffffffffffffffffffffffffffffff16815260200190815260200160002060009054906101000a900460ff16905092915050565b611f6a612651565b600073ffffffffffffffffffffffffffffffffffffffff168173ffffffffffffffffffffffffffffffffffffffff161415611fda576040517f08c379a0000000000000000000000000000000000000000000000000000000008152600401611fd1906140e8565b60405180910390fd5b611fe3816126cf565b50565b60007f80ac58cd000000000000000000000000000000000000000000000000000000007bffffffffffffffffffffffffffffffffffffffffffffffffffffffff1916827bffffffffffffffffffffffffffffffffffffffffffffffffffffffff191614806120b157507f5b5e139f000000000000000000000000000000000000000000000000000000007bffffffffffffffffffffffffffffffffffffffffffffffffffffffff1916827bffffffffffffffffffffffffffffffffffffffffffffffffffffffff1916145b806120c157506120c082612aca565b5b9050919050565b6120d181612b34565b612110576040517f08c379a000000000000000000000000000000000000000000000000000000000815260040161210790614268565b60405180910390fd5b50565b600033905090565b816004600083815260200190815260200160002060006101000a81548173ffffffffffffffffffffffffffffffffffffffff021916908373ffffffffffffffffffffffffffffffffffffffff160217905550808273ffffffffffffffffffffffffffffffffffffffff1661218e8361124a565b73ffffffffffffffffffffffffffffffffffffffff167f8c5be1e5ebec7d5bd14f71427d1e84f3dd0314c0f7b2291e5b200ac8c7c3b92560405160405180910390a45050565b6000806121e08361124a565b90508073ffffffffffffffffffffffffffffffffffffffff168473ffffffffffffffffffffffffffffffffffffffff16148061222257506122218185611ece565b5b8061226057508373ffffffffffffffffffffffffffffffffffffffff1661224884610775565b73ffffffffffffffffffffffffffffffffffffffff16145b91505092915050565b8273ffffffffffffffffffffffffffffffffffffffff166122898261124a565b73ffffffffffffffffffffffffffffffffffffffff16146122df576040517f08c379a00000000000000000000000000000000000000000000000000000000081526004016122d690614128565b60405180910390fd5b600073ffffffffffffffffffffffffffffffffffffffff168273ffffffffffffffffffffffffffffffffffffffff16141561234f576040517f08c379a000000000000000000000000000000000000000000000000000000000815260040161234690614168565b60405180910390fd5b61235c8383836001612b75565b8273ffffffffffffffffffffffffffffffffffffffff1661237c8261124a565b73ffffffffffffffffffffffffffffffffffffffff16146123d2576040517f08c379a00000000000000000000000000000000000000000000000000000000081526004016123c990614128565b60405180910390fd5b6004600082815260200190815260200160002060006101000a81549073ffffffffffffffffffffffffffffffffffffffff02191690556001600360008573ffffffffffffffffffffffffffffffffffffffff1673ffffffffffffffffffffffffffffffffffffffff168152602001908152602001600020600082825403925050819055506001600360008473ffffffffffffffffffffffffffffffffffffffff1673ffffffffffffffffffffffffffffffffffffffff16815260200190815260200160002060008282540192505081905550816002600083815260200190815260200160002060006101000a81548173ffffffffffffffffffffffffffffffffffffffff021916908373ffffffffffffffffffffffffffffffffffffffff160217905550808273ffffffffffffffffffffffffffffffffffffffff168473ffffffffffffffffffffffffffffffffffffffff167fddf252ad1be2c89b69c2b068fc378daa952ba7f163c4a11628f55a4df523b3ef60405160405180910390a461255e8383836001612b7b565b505050565b60008273ffffffffffffffffffffffffffffffffffffffff168260405161258990613fab565b60006040518083038185875af1925050503d80600081146125c6576040519150601f19603f3d011682016040523d82523d6000602084013e6125cb565b606091505b505090508061260f576040517f08c379a000000000000000000000000000000000000000000000000000000000815260040161260690614108565b60405180910390fd5b505050565b60006002600083815260200190815260200160002060009054906101000a900473ffffffffffffffffffffffffffffffffffffffff169050919050565b612659612113565b73ffffffffffffffffffffffffffffffffffffffff1661267761139d565b73ffffffffffffffffffffffffffffffffffffffff16146126cd576040517f08c379a00000000000000000000000000000000000000000000000000000000081526004016126c490614228565b60405180910390fd5b565b6000600760009054906101000a900473ffffffffffffffffffffffffffffffffffffffff16905081600760006101000a81548173ffffffffffffffffffffffffffffffffffffffff021916908373ffffffffffffffffffffffffffffffffffffffff1602179055508173ffffffffffffffffffffffffffffffffffffffff168173ffffffffffffffffffffffffffffffffffffffff167f8be0079c531659141344cd1fd0a4f28419497f9722a3daafe3b4186f6b6457e060405160405180910390a35050565b6001816000016000828254019250508190555050565b600081600001549050919050565b6127d3828260405180602001604052806000815250612b81565b5050565b6127e082612b34565b61281f576040517f08c379a0000000000000000000000000000000000000000000000000000000008152600401612816906141c8565b60405180910390fd5b8060066000848152602001908152602001600020908051906020019061284692919061330f565b507ff8e1a15aba9398e019f0b49df1a4fde98ee17ae345cb5f6b5e2c27f5033e8ce7826040516128769190614368565b60405180910390a15050565b8173ffffffffffffffffffffffffffffffffffffffff168373ffffffffffffffffffffffffffffffffffffffff1614156128f1576040517f08c379a00000000000000000000000000000000000000000000000000000000081526004016128e890614188565b60405180910390fd5b80600560008573ffffffffffffffffffffffffffffffffffffffff1673ffffffffffffffffffffffffffffffffffffffff16815260200190815260200160002060008473ffffffffffffffffffffffffffffffffffffffff1673ffffffffffffffffffffffffffffffffffffffff16815260200190815260200160002060006101000a81548160ff0219169083151502179055508173ffffffffffffffffffffffffffffffffffffffff168373ffffffffffffffffffffffffffffffffffffffff167f17307eab39ab6107e8899845ad3d59bd9653f200f220920489ca2b5937696c31836040516129e2919061406b565b60405180910390a3505050565b6129fa848484612269565b612a0684848484612bdc565b612a45576040517f08c379a0000000000000000000000000000000000000000000000000000000008152600401612a3c906140c8565b60405180910390fd5b50505050565b606060405180602001604052806000815250905090565b6060612a6d826120c8565b6000612a77612a4b565b90506000815111612a975760405180602001604052806000815250612ac2565b80612aa184612d73565b604051602001612ab2929190613f87565b6040516020818303038152906040525b915050919050565b60007f01ffc9a7000000000000000000000000000000000000000000000000000000007bffffffffffffffffffffffffffffffffffffffffffffffffffffffff1916827bffffffffffffffffffffffffffffffffffffffffffffffffffffffff1916149050919050565b60008073ffffffffffffffffffffffffffffffffffffffff16612b5683612614565b73ffffffffffffffffffffffffffffffffffffffff1614159050919050565b50505050565b50505050565b612b8b8383612e97565b612b986000848484612bdc565b612bd7576040517f08c379a0000000000000000000000000000000000000000000000000000000008152600401612bce906140c8565b60405180910390fd5b505050565b6000612bfd8473ffffffffffffffffffffffffffffffffffffffff166130b5565b15612d66578373ffffffffffffffffffffffffffffffffffffffff1663150b7a02612c26612113565b8786866040518563ffffffff1660e01b8152600401612c489493929190613fdb565b602060405180830381600087803b158015612c6257600080fd5b505af1925050508015612c9357506040513d601f19601f82011682018060405250810190612c9091906136bb565b60015b612d16573d8060008114612cc3576040519150601f19603f3d011682016040523d82523d6000602084013e612cc8565b606091505b50600081511415612d0e576040517f08c379a0000000000000000000000000000000000000000000000000000000008152600401612d05906140c8565b60405180910390fd5b805181602001fd5b63150b7a0260e01b7bffffffffffffffffffffffffffffffffffffffffffffffffffffffff1916817bffffffffffffffffffffffffffffffffffffffffffffffffffffffff191614915050612d6b565b600190505b949350505050565b606060006001612d82846130d8565b01905060008167ffffffffffffffff811115612dc7577f4e487b7100000000000000000000000000000000000000000000000000000000600052604160045260246000fd5b6040519080825280601f01601f191660200182016040528015612df95781602001600182028036833780820191505090505b509050600082602001820190505b600115612e8c578080600190039150507f3031323334353637383961626364656600000000000000000000000000000000600a86061a8153600a8581612e76577f4e487b7100000000000000000000000000000000000000000000000000000000600052601260045260246000fd5b0494506000851415612e8757612e8c565b612e07565b819350505050919050565b600073ffffffffffffffffffffffffffffffffffffffff168273ffffffffffffffffffffffffffffffffffffffff161415612f07576040517f08c379a0000000000000000000000000000000000000000000000000000000008152600401612efe906141e8565b60405180910390fd5b612f1081612b34565b15612f50576040517f08c379a0000000000000000000000000000000000000000000000000000000008152600401612f4790614148565b60405180910390fd5b612f5e600083836001612b75565b612f6781612b34565b15612fa7576040517f08c379a0000000000000000000000000000000000000000000000000000000008152600401612f9e90614148565b60405180910390fd5b6001600360008473ffffffffffffffffffffffffffffffffffffffff1673ffffffffffffffffffffffffffffffffffffffff16815260200190815260200160002060008282540192505081905550816002600083815260200190815260200160002060006101000a81548173ffffffffffffffffffffffffffffffffffffffff021916908373ffffffffffffffffffffffffffffffffffffffff160217905550808273ffffffffffffffffffffffffffffffffffffffff16600073ffffffffffffffffffffffffffffffffffffffff167fddf252ad1be2c89b69c2b068fc378daa952ba7f163c4a11628f55a4df523b3ef60405160405180910390a46130b1600083836001612b7b565b5050565b6000808273ffffffffffffffffffffffffffffffffffffffff163b119050919050565b600080600090507a184f03e93ff9f4daa797ed6e38ed64bf6a1f010000000000000000831061315c577a184f03e93ff9f4daa797ed6e38ed64bf6a1f0100000000000000008381613152577f4e487b7100000000000000000000000000000000000000000000000000000000600052601260045260246000fd5b0492506040810190505b6d04ee2d6d415b85acef810000000083106131bf576d04ee2d6d415b85acef810000000083816131b5577f4e487b7100000000000000000000000000000000000000000000000000000000600052601260045260246000fd5b0492506020810190505b662386f26fc10000831061321457662386f26fc10000838161320a577f4e487b7100000000000000000000000000000000000000000000000000000000600052601260045260246000fd5b0492506010810190505b6305f5e1008310613263576305f5e1008381613259577f4e487b7100000000000000000000000000000000000000000000000000000000600052601260045260246000fd5b0492506008810190505b61271083106132ae5761271083816132a4577f4e487b7100000000000000000000000000000000000000000000000000000000600052601260045260246000fd5b0492506004810190505b606483106132f757606483816132ed577f4e487b7100000000000000000000000000000000000000000000000000000000600052601260045260246000fd5b0492506002810190505b600a8310613306576001810190505b80915050919050565b82805461331b906146fd565b90600052602060002090601f01602090048101928261333d5760008555613384565b82601f1061335657805160ff1916838001178555613384565b82800160010185558215613384579182015b82811115613383578251825591602001919060010190613368565b5b5090506133919190613395565b5090565b5b808211156133ae576000816000905550600101613396565b5090565b60006133c56133c084614440565b61441b565b9050828152602081018484840111156133dd57600080fd5b6133e88482856146bb565b509392505050565b60006134036133fe84614471565b61441b565b90508281526020810184848401111561341b57600080fd5b6134268482856146bb565b509392505050565b60008135905061343d81614dc7565b92915050565b60008135905061345281614dde565b92915050565b60008135905061346781614df5565b92915050565b60008151905061347c81614df5565b92915050565b600082601f83011261349357600080fd5b81356134a38482602086016133b2565b91505092915050565b600082601f8301126134bd57600080fd5b81356134cd8482602086016133f0565b91505092915050565b6000813590506134e581614e0c565b92915050565b6000602082840312156134fd57600080fd5b600061350b8482850161342e565b91505092915050565b6000806040838503121561352757600080fd5b60006135358582860161342e565b92505060206135468582860161342e565b9150509250929050565b60008060006060848603121561356557600080fd5b60006135738682870161342e565b93505060206135848682870161342e565b9250506040613595868287016134d6565b9150509250925092565b600080600080608085870312156135b557600080fd5b60006135c38782880161342e565b94505060206135d48782880161342e565b93505060406135e5878288016134d6565b925050606085013567ffffffffffffffff81111561360257600080fd5b61360e87828801613482565b91505092959194509250565b6000806040838503121561362d57600080fd5b600061363b8582860161342e565b925050602061364c85828601613443565b9150509250929050565b6000806040838503121561366957600080fd5b60006136778582860161342e565b9250506020613688858286016134d6565b9150509250929050565b6000602082840312156136a457600080fd5b60006136b284828501613458565b91505092915050565b6000602082840312156136cd57600080fd5b60006136db8482850161346d565b91505092915050565b600080600080600060a086880312156136fc57600080fd5b600086013567ffffffffffffffff81111561371657600080fd5b613722888289016134ac565b955050602086013567ffffffffffffffff81111561373f57600080fd5b61374b888289016134ac565b945050604086013567ffffffffffffffff81111561376857600080fd5b613774888289016134ac565b935050606086013567ffffffffffffffff81111561379157600080fd5b61379d888289016134ac565b92505060806137ae888289016134d6565b9150509295509295909350565b6000602082840312156137cd57600080fd5b60006137db848285016134d6565b91505092915050565b600080604083850312156137f757600080fd5b6000613805858286016134d6565b9250506020613816858286016134d6565b9150509250929050565b600061382c8383613def565b905092915050565b60006138408383613ec9565b905092915050565b61385181614647565b82525050565b61386081614647565b82525050565b6000613871826144d7565b61387b818561451d565b93508360208202850161388d856144a2565b8060005b858110156138c957848403895281516138aa8582613820565b94506138b583614503565b925060208a01995050600181019050613891565b50829750879550505050505092915050565b60006138e6826144e2565b6138f0818561452e565b935083602082028501613902856144b2565b8060005b8581101561393e578484038952815161391f8582613834565b945061392a83614510565b925060208a01995050600181019050613906565b50829750879550505050505092915050565b61395981614659565b82525050565b61396881614659565b82525050565b6000613979826144ed565b613983818561453f565b93506139938185602086016146ca565b61399c81614865565b840191505092915050565b60006139b2826144f8565b6139bc818561455b565b93506139cc8185602086016146ca565b6139d581614865565b840191505092915050565b60006139eb826144f8565b6139f5818561456c565b9350613a058185602086016146ca565b613a0e81614865565b840191505092915050565b6000613a24826144f8565b613a2e818561457d565b9350613a3e8185602086016146ca565b80840191505092915050565b60008154613a57816146fd565b613a61818661456c565b94506001821660008114613a7c5760018114613a8e57613ac1565b60ff1983168652602086019350613ac1565b613a97856144c2565b60005b83811015613ab957815481890152600182019150602081019050613a9a565b808801955050505b50505092915050565b6000613ad7602d8361456c565b9150613ae282614876565b604082019050919050565b6000613afa60328361456c565b9150613b05826148c5565b604082019050919050565b6000613b1d60268361456c565b9150613b2882614914565b604082019050919050565b6000613b4060158361456c565b9150613b4b82614963565b602082019050919050565b6000613b6360258361456c565b9150613b6e8261498c565b604082019050919050565b6000613b86601c8361456c565b9150613b91826149db565b602082019050919050565b6000613ba960248361456c565b9150613bb482614a04565b604082019050919050565b6000613bcc60198361456c565b9150613bd782614a53565b602082019050919050565b6000613bef60298361456c565b9150613bfa82614a7c565b604082019050919050565b6000613c12602e8361456c565b9150613c1d82614acb565b604082019050919050565b6000613c3560208361456c565b9150613c4082614b1a565b602082019050919050565b6000613c5860228361456c565b9150613c6382614b43565b604082019050919050565b6000613c7b60208361456c565b9150613c8682614b92565b602082019050919050565b6000613c9e60188361456c565b9150613ca982614bbb565b602082019050919050565b6000613cc160188361456c565b9150613ccc82614be4565b602082019050919050565b6000613ce4601b8361456c565b9150613cef82614c0d565b602082019050919050565b6000613d0760218361456c565b9150613d1282614c36565b604082019050919050565b6000613d2a600083614550565b9150613d3582614c85565b600082019050919050565b6000613d4d603d8361456c565b9150613d5882614c88565b604082019050919050565b6000613d70601a8361456c565b9150613d7b82614cd7565b602082019050919050565b6000613d9360368361456c565b9150613d9e82614d00565b604082019050919050565b6000613db660168361456c565b9150613dc182614d4f565b602082019050919050565b6000613dd960218361456c565b9150613de482614d78565b604082019050919050565b600061012083016000830151613e086000860182613f52565b506020830151613e1b6020860182613848565b5060408301518482036040860152613e3382826139a7565b91505060608301518482036060860152613e4d82826139a7565b91505060808301518482036080860152613e6782826139a7565b91505060a0830151613e7c60a0860182613f52565b5060c083015184820360c0860152613e9482826139a7565b91505060e0830151613ea960e0860182613f52565b50610100830151613ebe610100860182613950565b508091505092915050565b600060c083016000830151613ee16000860182613f52565b506020830151613ef46020860182613848565b506040830151613f076040860182613848565b5060608301518482036060860152613f1f82826139a7565b9150506080830151613f346080860182613f52565b5060a0830151613f4760a0860182613f52565b508091505092915050565b613f5b816146b1565b82525050565b613f6a816146b1565b82525050565b6000613f7c8284613a19565b915081905092915050565b6000613f938285613a19565b9150613f9f8284613a19565b91508190509392505050565b6000613fb682613d1d565b9150819050919050565b6000602082019050613fd56000830184613857565b92915050565b6000608082019050613ff06000830187613857565b613ffd6020830186613857565b61400a6040830185613f61565b818103606083015261401c818461396e565b905095945050505050565b600060208201905081810360008301526140418184613866565b905092915050565b6000602082019050818103600083015261406381846138db565b905092915050565b6000602082019050614080600083018461395f565b92915050565b600060208201905081810360008301526140a081846139e0565b905092915050565b600060208201905081810360008301526140c181613aca565b9050919050565b600060208201905081810360008301526140e181613aed565b9050919050565b6000602082019050818103600083015261410181613b10565b9050919050565b6000602082019050818103600083015261412181613b33565b9050919050565b6000602082019050818103600083015261414181613b56565b9050919050565b6000602082019050818103600083015261416181613b79565b9050919050565b6000602082019050818103600083015261418181613b9c565b9050919050565b600060208201905081810360008301526141a181613bbf565b9050919050565b600060208201905081810360008301526141c181613be2565b9050919050565b600060208201905081810360008301526141e181613c05565b9050919050565b6000602082019050818103600083015261420181613c28565b9050919050565b6000602082019050818103600083015261422181613c4b565b9050919050565b6000602082019050818103600083015261424181613c6e565b9050919050565b6000602082019050818103600083015261426181613c91565b9050919050565b6000602082019050818103600083015261428181613cb4565b9050919050565b600060208201905081810360008301526142a181613cd7565b9050919050565b600060208201905081810360008301526142c181613cfa565b9050919050565b600060208201905081810360008301526142e181613d40565b9050919050565b6000602082019050818103600083015261430181613d63565b9050919050565b6000602082019050818103600083015261432181613d86565b9050919050565b6000602082019050818103600083015261434181613da9565b9050919050565b6000602082019050818103600083015261436181613dcc565b9050919050565b600060208201905061437d6000830184613f61565b92915050565b60006080820190506143986000830187613f61565b6143a56020830186613f61565b81810360408301526143b781856139e0565b90506143c66060830184613f61565b95945050505050565b60006080820190506143e46000830187613f61565b6143f16020830186613f61565b81810360408301526144038185613a4a565b90506144126060830184613f61565b95945050505050565b6000614425614436565b9050614431828261472f565b919050565b6000604051905090565b600067ffffffffffffffff82111561445b5761445a614836565b5b61446482614865565b9050602081019050919050565b600067ffffffffffffffff82111561448c5761448b614836565b5b61449582614865565b9050602081019050919050565b6000819050602082019050919050565b6000819050602082019050919050565b60008190508160005260206000209050919050565b600081519050919050565b600081519050919050565b600081519050919050565b600081519050919050565b6000602082019050919050565b6000602082019050919050565b600082825260208201905092915050565b600082825260208201905092915050565b600082825260208201905092915050565b600081905092915050565b600082825260208201905092915050565b600082825260208201905092915050565b600081905092915050565b6000614593826146b1565b915061459e836146b1565b9250826145ae576145ad6147d8565b5b828204905092915050565b60006145c4826146b1565b91506145cf836146b1565b9250817fffffffffffffffffffffffffffffffffffffffffffffffffffffffffffffffff0483118215151615614608576146076147a9565b5b828202905092915050565b600061461e826146b1565b9150614629836146b1565b92508282101561463c5761463b6147a9565b5b828203905092915050565b600061465282614691565b9050919050565b60008115159050919050565b60007fffffffff0000000000000000000000000000000000000000000000000000000082169050919050565b600073ffffffffffffffffffffffffffffffffffffffff82169050919050565b6000819050919050565b82818337600083830152505050565b60005b838110156146e85780820151818401526020810190506146cd565b838111156146f7576000848401525b50505050565b6000600282049050600182168061471557607f821691505b6020821081141561472957614728614807565b5b50919050565b61473882614865565b810181811067ffffffffffffffff8211171561475757614756614836565b5b80604052505050565b600061476b826146b1565b91507fffffffffffffffffffffffffffffffffffffffffffffffffffffffffffffffff82141561479e5761479d6147a9565b5b600182019050919050565b7f4e487b7100000000000000000000000000000000000000000000000000000000600052601160045260246000fd5b7f4e487b7100000000000000000000000000000000000000000000000000000000600052601260045260246000fd5b7f4e487b7100000000000000000000000000000000000000000000000000000000600052602260045260246000fd5b7f4e487b7100000000000000000000000000000000000000000000000000000000600052604160045260246000fd5b6000601f19601f8301169050919050565b7f4552433732313a2063616c6c6572206973206e6f7420746f6b656e206f776e6560008201527f72206f7220617070726f76656400000000000000000000000000000000000000602082015250565b7f4552433732313a207472616e7366657220746f206e6f6e20455243373231526560008201527f63656976657220696d706c656d656e7465720000000000000000000000000000602082015250565b7f4f776e61626c653a206e6577206f776e657220697320746865207a65726f206160008201527f6464726573730000000000000000000000000000000000000000000000000000602082015250565b7f536f6d657468696e672077656e742077726f6e67210000000000000000000000600082015250565b7f4552433732313a207472616e736665722066726f6d20696e636f72726563742060008201527f6f776e6572000000000000000000000000000000000000000000000000000000602082015250565b7f4552433732313a20746f6b656e20616c7265616479206d696e74656400000000600082015250565b7f4552433732313a207472616e7366657220746f20746865207a65726f2061646460008201527f7265737300000000000000000000000000000000000000000000000000000000602082015250565b7f4552433732313a20617070726f766520746f2063616c6c657200000000000000600082015250565b7f4552433732313a2061646472657373207a65726f206973206e6f74206120766160008201527f6c6964206f776e65720000000000000000000000000000000000000000000000602082015250565b7f45524337323155524953746f726167653a2055524920736574206f66206e6f6e60008201527f6578697374656e7420746f6b656e000000000000000000000000000000000000602082015250565b7f4552433732313a206d696e7420746f20746865207a65726f2061646472657373600082015250565b7f4f776e6572206973206e6f7420616c6c6f77656420746f204d696e74204e465460008201527f732e000000000000000000000000000000000000000000000000000000000000602082015250565b7f4f776e61626c653a2063616c6c6572206973206e6f7420746865206f776e6572600082015250565b7f4e65772050726963652063616e6e6f74206265205a65726f0000000000000000600082015250565b7f4552433732313a20696e76616c696420746f6b656e2049440000000000000000600082015250565b7f457468657220746f6f206c6f7720666f72207075726368617365210000000000600082015250565b7f4552433732313a20617070726f76616c20746f2063757272656e74206f776e6560008201527f7200000000000000000000000000000000000000000000000000000000000000602082015250565b50565b7f4552433732313a20617070726f76652063616c6c6572206973206e6f7420746f60008201527f6b656e206f776e6572206f7220617070726f76656420666f7220616c6c000000602082015250565b7f457468657220746f6f206c6f7720666f72206d696e74696e6721000000000000600082015250565b7f596f7520617265206e6f7420746865206f776e6572206f662074686973204e4660008201527f54212c205472792070757263686173696e672069742e00000000000000000000602082015250565b7f4f7065726174696f6e204e6f7420416c6c6f7765642100000000000000000000600082015250565b7f536f72727921205468697320746f6b656e206973206e6f74206f6e2053616c6560008201527f2e00000000000000000000000000000000000000000000000000000000000000602082015250565b614dd081614647565b8114614ddb57600080fd5b50565b614de781614659565b8114614df257600080fd5b50565b614dfe81614665565b8114614e0957600080fd5b50565b614e15816146b1565b8114614e2057600080fd5b5056fea26469706673582212207a394ec1d0818603f87f18b54d892fed4b4197219f8e9c497daffaa70e3655c664736f6c63430008020033",
  "linkReferences": {},
  "deployedLinkReferences": {}
}